{
  "contractName": "SecureMessaging",
  "abi": [
    {
      "anonymous": false,
      "inputs": [
        {
          "indexed": true,
          "internalType": "string",
          "name": "ipfsHash",
          "type": "string"
        },
        {
          "indexed": true,
          "internalType": "address",
          "name": "reader",
          "type": "address"
        }
      ],
      "name": "MessageRead",
      "type": "event"
    },
    {
      "anonymous": false,
      "inputs": [
        {
          "indexed": true,
          "internalType": "address",
          "name": "sender",
          "type": "address"
        },
        {
          "indexed": true,
          "internalType": "address",
          "name": "receiver",
          "type": "address"
        },
        {
          "indexed": false,
          "internalType": "uint256",
          "name": "timestamp",
          "type": "uint256"
        },
        {
          "indexed": false,
          "internalType": "string",
          "name": "ipfsHash",
          "type": "string"
        }
      ],
      "name": "MessageSent",
      "type": "event"
    },
    {
      "inputs": [
        {
          "internalType": "uint256",
          "name": "",
          "type": "uint256"
        }
      ],
      "name": "allMessages",
      "outputs": [
        {
          "internalType": "address",
          "name": "sender",
          "type": "address"
        },
        {
          "internalType": "address",
          "name": "receiver",
          "type": "address"
        },
        {
          "internalType": "uint256",
          "name": "timestamp",
          "type": "uint256"
        },
        {
          "internalType": "string",
          "name": "ipfsHash",
          "type": "string"
        }
      ],
      "stateMutability": "view",
      "type": "function",
      "constant": true
    },
    {
      "inputs": [
        {
          "internalType": "string",
          "name": "",
          "type": "string"
        }
      ],
      "name": "isMessageRead",
      "outputs": [
        {
          "internalType": "bool",
          "name": "",
          "type": "bool"
        }
      ],
      "stateMutability": "view",
      "type": "function",
      "constant": true
    },
    {
      "inputs": [
        {
          "internalType": "string",
          "name": "",
          "type": "string"
        }
      ],
      "name": "messageReceiver",
      "outputs": [
        {
          "internalType": "address",
          "name": "",
          "type": "address"
        }
      ],
      "stateMutability": "view",
      "type": "function",
      "constant": true
    },
    {
      "inputs": [
        {
          "internalType": "address",
          "name": "",
          "type": "address"
        }
      ],
      "name": "publicKeys",
      "outputs": [
        {
          "internalType": "string",
          "name": "",
          "type": "string"
        }
      ],
      "stateMutability": "view",
      "type": "function",
      "constant": true
    },
    {
      "inputs": [
        {
          "internalType": "string",
          "name": "_publicKey",
          "type": "string"
        }
      ],
      "name": "registerPublicKey",
      "outputs": [],
      "stateMutability": "nonpayable",
      "type": "function"
    },
    {
      "inputs": [
        {
          "internalType": "address",
          "name": "_receiver",
          "type": "address"
        },
        {
          "internalType": "string",
          "name": "_ipfsHash",
          "type": "string"
        }
      ],
      "name": "sendMessage",
      "outputs": [],
      "stateMutability": "nonpayable",
      "type": "function"
    },
    {
      "inputs": [
        {
          "internalType": "string",
          "name": "_ipfsHash",
          "type": "string"
        }
      ],
      "name": "markMessageAsRead",
      "outputs": [],
      "stateMutability": "nonpayable",
      "type": "function"
    }
  ],
  "bytecode": "0x608060405234801561001057600080fd5b5061142b806100206000396000f3fe608060405234801561001057600080fd5b506004361061007d5760003560e01c8063ca4f73741161005b578063ca4f737414610115578063de6f24bb14610145578063f590b65f14610161578063f68f33481461017d5761007d565b806386aaa339146100825780639b88c806146100b2578063a3d6f9a9146100e5575b600080fd5b61009c60048036038101906100979190610ad1565b610199565b6040516100a99190610b35565b60405180910390f35b6100cc60048036038101906100c79190610b86565b6101cf565b6040516100dc9493929190610c82565b60405180910390f35b6100ff60048036038101906100fa9190610cfa565b6102d7565b60405161010c9190610d27565b60405180910390f35b61012f600480360381019061012a9190610ad1565b610377565b60405161013c9190610d49565b60405180910390f35b61015f600480360381019061015a9190610d64565b6103c0565b005b61017b60048036038101906101769190610ad1565b610739565b005b61019760048036038101906101929190610ad1565b6107cc565b005b6002818051602081018201805184825260208301602085012081835280955050505050506000915054906101000a900460ff1681565b600381815481106101df57600080fd5b90600052602060002090600402016000915090508060000160009054906101000a900473ffffffffffffffffffffffffffffffffffffffff16908060010160009054906101000a900473ffffffffffffffffffffffffffffffffffffffff169080600201549080600301805461025490610def565b80601f016020809104026020016040519081016040528092919081815260200182805461028090610def565b80156102cd5780601f106102a2576101008083540402835291602001916102cd565b820191906000526020600020905b8154815290600101906020018083116102b057829003601f168201915b5050505050905084565b600060205280600052604060002060009150905080546102f690610def565b80601f016020809104026020016040519081016040528092919081815260200182805461032290610def565b801561036f5780601f106103445761010080835404028352916020019161036f565b820191906000526020600020905b81548152906001019060200180831161035257829003601f168201915b505050505081565b6001818051602081018201805184825260208301602085012081835280955050505050506000915054906101000a900473ffffffffffffffffffffffffffffffffffffffff1681565b600073ffffffffffffffffffffffffffffffffffffffff168273ffffffffffffffffffffffffffffffffffffffff160361042f576040517f08c379a000000000000000000000000000000000000000000000000000000000815260040161042690610e6c565b60405180910390fd5b60008060003373ffffffffffffffffffffffffffffffffffffffff1673ffffffffffffffffffffffffffffffffffffffff168152602001908152602001600020805461047a90610def565b9050116104bc576040517f08c379a00000000000000000000000000000000000000000000000000000000081526004016104b390610efe565b60405180910390fd5b60008060008473ffffffffffffffffffffffffffffffffffffffff1673ffffffffffffffffffffffffffffffffffffffff168152602001908152602001600020805461050790610def565b905011610549576040517f08c379a000000000000000000000000000000000000000000000000000000000815260040161054090610f90565b60405180910390fd5b600360405180608001604052803373ffffffffffffffffffffffffffffffffffffffff1681526020018473ffffffffffffffffffffffffffffffffffffffff16815260200142815260200183815250908060018154018082558091505060019003906000526020600020906004020160009091909190915060008201518160000160006101000a81548173ffffffffffffffffffffffffffffffffffffffff021916908373ffffffffffffffffffffffffffffffffffffffff16021790555060208201518160010160006101000a81548173ffffffffffffffffffffffffffffffffffffffff021916908373ffffffffffffffffffffffffffffffffffffffff16021790555060408201518160020155606082015181600301908161066e919061115c565b50505081600182604051610682919061126a565b908152602001604051809103902060006101000a81548173ffffffffffffffffffffffffffffffffffffffff021916908373ffffffffffffffffffffffffffffffffffffffff1602179055508173ffffffffffffffffffffffffffffffffffffffff163373ffffffffffffffffffffffffffffffffffffffff167f0b6aa398652c861e442761200431647f8622c16488a180e5354301cdcfb33715428460405161072d929190611281565b60405180910390a35050565b600081511161077d576040517f08c379a0000000000000000000000000000000000000000000000000000000008152600401610774906112fd565b60405180910390fd5b806000803373ffffffffffffffffffffffffffffffffffffffff1673ffffffffffffffffffffffffffffffffffffffff16815260200190815260200160002090816107c8919061115c565b5050565b3373ffffffffffffffffffffffffffffffffffffffff166001826040516107f3919061126a565b908152602001604051809103902060009054906101000a900473ffffffffffffffffffffffffffffffffffffffff1673ffffffffffffffffffffffffffffffffffffffff1614610878576040517f08c379a000000000000000000000000000000000000000000000000000000000815260040161086f90611369565b60405180910390fd5b600281604051610888919061126a565b908152602001604051809103902060009054906101000a900460ff16156108e4576040517f08c379a00000000000000000000000000000000000000000000000000000000081526004016108db906113d5565b60405180910390fd5b60016002826040516108f6919061126a565b908152602001604051809103902060006101000a81548160ff0219169083151502179055503373ffffffffffffffffffffffffffffffffffffffff1681604051610940919061126a565b60405180910390207f881edf2d48120fb12db6dc5145eddf7e69b851a2b6fcbb5f6f93af208bccf62760405160405180910390a350565b6000604051905090565b600080fd5b600080fd5b600080fd5b600080fd5b6000601f19601f8301169050919050565b7f4e487b7100000000000000000000000000000000000000000000000000000000600052604160045260246000fd5b6109de82610995565b810181811067ffffffffffffffff821117156109fd576109fc6109a6565b5b80604052505050565b6000610a10610977565b9050610a1c82826109d5565b919050565b600067ffffffffffffffff821115610a3c57610a3b6109a6565b5b610a4582610995565b9050602081019050919050565b82818337600083830152505050565b6000610a74610a6f84610a21565b610a06565b905082815260208101848484011115610a9057610a8f610990565b5b610a9b848285610a52565b509392505050565b600082601f830112610ab857610ab761098b565b5b8135610ac8848260208601610a61565b91505092915050565b600060208284031215610ae757610ae6610981565b5b600082013567ffffffffffffffff811115610b0557610b04610986565b5b610b1184828501610aa3565b91505092915050565b60008115159050919050565b610b2f81610b1a565b82525050565b6000602082019050610b4a6000830184610b26565b92915050565b6000819050919050565b610b6381610b50565b8114610b6e57600080fd5b50565b600081359050610b8081610b5a565b92915050565b600060208284031215610b9c57610b9b610981565b5b6000610baa84828501610b71565b91505092915050565b600073ffffffffffffffffffffffffffffffffffffffff82169050919050565b6000610bde82610bb3565b9050919050565b610bee81610bd3565b82525050565b610bfd81610b50565b82525050565b600081519050919050565b600082825260208201905092915050565b60005b83811015610c3d578082015181840152602081019050610c22565b60008484015250505050565b6000610c5482610c03565b610c5e8185610c0e565b9350610c6e818560208601610c1f565b610c7781610995565b840191505092915050565b6000608082019050610c976000830187610be5565b610ca46020830186610be5565b610cb16040830185610bf4565b8181036060830152610cc38184610c49565b905095945050505050565b610cd781610bd3565b8114610ce257600080fd5b50565b600081359050610cf481610cce565b92915050565b600060208284031215610d1057610d0f610981565b5b6000610d1e84828501610ce5565b91505092915050565b60006020820190508181036000830152610d418184610c49565b905092915050565b6000602082019050610d5e6000830184610be5565b92915050565b60008060408385031215610d7b57610d7a610981565b5b6000610d8985828601610ce5565b925050602083013567ffffffffffffffff811115610daa57610da9610986565b5b610db685828601610aa3565b9150509250929050565b7f4e487b7100000000000000000000000000000000000000000000000000000000600052602260045260246000fd5b60006002820490506001821680610e0757607f821691505b602082108103610e1a57610e19610dc0565b5b50919050565b7f496e76616c696420726563656976657220616464726573730000000000000000600082015250565b6000610e56601883610c0e565b9150610e6182610e20565b602082019050919050565b60006020820190508181036000830152610e8581610e49565b9050919050565b7f53656e646572206d7573742072656769737465722061207075626c6963206b6560008201527f7900000000000000000000000000000000000000000000000000000000000000602082015250565b6000610ee8602183610c0e565b9150610ef382610e8c565b604082019050919050565b60006020820190508181036000830152610f1781610edb565b9050919050565b7f5265636569766572206d7573742068617665206120726567697374657265642060008201527f7075626c6963206b657900000000000000000000000000000000000000000000602082015250565b6000610f7a602a83610c0e565b9150610f8582610f1e565b604082019050919050565b60006020820190508181036000830152610fa981610f6d565b9050919050565b60008190508160005260206000209050919050565b60006020601f8301049050919050565b600082821b905092915050565b6000600883026110127fffffffffffffffffffffffffffffffffffffffffffffffffffffffffffffffff82610fd5565b61101c8683610fd5565b95508019841693508086168417925050509392505050565b6000819050919050565b600061105961105461104f84610b50565b611034565b610b50565b9050919050565b6000819050919050565b6110738361103e565b61108761107f82611060565b848454610fe2565b825550505050565b600090565b61109c61108f565b6110a781848461106a565b505050565b5b818110156110cb576110c0600082611094565b6001810190506110ad565b5050565b601f821115611110576110e181610fb0565b6110ea84610fc5565b810160208510156110f9578190505b61110d61110585610fc5565b8301826110ac565b50505b505050565b600082821c905092915050565b600061113360001984600802611115565b1980831691505092915050565b600061114c8383611122565b9150826002028217905092915050565b61116582610c03565b67ffffffffffffffff81111561117e5761117d6109a6565b5b6111888254610def565b6111938282856110cf565b600060209050601f8311600181146111c657600084156111b4578287015190505b6111be8582611140565b865550611226565b601f1984166111d486610fb0565b60005b828110156111fc578489015182556001820191506020850194506020810190506111d7565b868310156112195784890151611215601f891682611122565b8355505b6001600288020188555050505b505050505050565b600081905092915050565b600061124482610c03565b61124e818561122e565b935061125e818560208601610c1f565b80840191505092915050565b60006112768284611239565b915081905092915050565b60006040820190506112966000830185610bf4565b81810360208301526112a88184610c49565b90509392505050565b7f5075626c6963206b65792063616e6e6f7420626520656d707479000000000000600082015250565b60006112e7601a83610c0e565b91506112f2826112b1565b602082019050919050565b60006020820190508181036000830152611316816112da565b9050919050565b7f4f6e6c792072656365697665722063616e206d61726b20617320726561640000600082015250565b6000611353601e83610c0e565b915061135e8261131d565b602082019050919050565b6000602082019050818103600083015261138281611346565b9050919050565b7f4d65737361676520616c7265616479206d61726b656420617320726561640000600082015250565b60006113bf601e83610c0e565b91506113ca82611389565b602082019050919050565b600060208201905081810360008301526113ee816113b2565b905091905056fea26469706673582212207449163bd19730bc0e92c3f7ccec7cd2eb3a3449c0fa4622bea1a9f9b3ad168a64736f6c63430008130033",
  "immutableReferences": {},
  "source": "// SPDX-License-Identifier: MIT\r\npragma solidity ^0.8.19;\r\n\r\ncontract SecureMessaging {\r\n\r\n    struct Message {\r\n        address sender;\r\n        address receiver;\r\n        uint timestamp;\r\n        string ipfsHash;\r\n    }\r\n\r\n    event MessageSent(address indexed sender, address indexed receiver, uint timestamp, string ipfsHash);\r\n    event MessageRead(string indexed ipfsHash, address indexed reader);\r\n    \r\n    // --- MAPPINGS (REMOVED: profilePics mapping) ---\r\n    mapping(address => string) public publicKeys;\r\n    mapping(string => address) public messageReceiver;\r\n    mapping(string => bool) public isMessageRead;\r\n    \r\n    Message[] public allMessages;\r\n\r\n    function registerPublicKey(string memory _publicKey) public {\r\n        require(bytes(_publicKey).length > 0, \"Public key cannot be empty\");\r\n        publicKeys[msg.sender] = _publicKey;\r\n    }\r\n\r\n    // REMOVED: setProfilePic and getProfilePic functions\r\n\r\n    function sendMessage(address _receiver, string memory _ipfsHash) public {\r\n        require(_receiver != address(0), \"Invalid receiver address\");\r\n        require(bytes(publicKeys[msg.sender]).length > 0, \"Sender must register a public key\");\r\n        require(bytes(publicKeys[_receiver]).length > 0, \"Receiver must have a registered public key\");\r\n        \r\n        allMessages.push(Message(msg.sender, _receiver, block.timestamp, _ipfsHash));\r\n        messageReceiver[_ipfsHash] = _receiver;\r\n        \r\n        emit MessageSent(msg.sender, _receiver, block.timestamp, _ipfsHash);\r\n    }\r\n\r\n    function markMessageAsRead(string memory _ipfsHash) public {\r\n        require(messageReceiver[_ipfsHash] == msg.sender, \"Only receiver can mark as read\");\r\n        require(!isMessageRead[_ipfsHash], \"Message already marked as read\");\r\n        isMessageRead[_ipfsHash] = true;\r\n        emit MessageRead(_ipfsHash, msg.sender);\r\n    }\r\n}",
  "sourcePath": "C:\\Users\\tharu\\blockchain-secure-messaging\\contracts\\SecureMessaging.sol",
  "compiler": {
    "name": "solc",
    "version": "0.8.19+commit.7dd6d404.Emscripten.clang"
  },
  "schemaVersion": "3.4.16",
  "updatedAt": "2025-11-21T15:53:46.409Z",
  "networkType": "ethereum",
  "devdoc": {
    "kind": "dev",
    "methods": {},
    "version": 1
  },
  "userdoc": {
    "kind": "user",
    "methods": {},
    "version": 1
  }
}