{
  "contractName": "SecureMessaging",
  "abi": [
    {
      "anonymous": false,
      "inputs": [
        {
          "indexed": true,
          "internalType": "string",
          "name": "ipfsHash",
          "type": "string"
        },
        {
          "indexed": true,
          "internalType": "address",
          "name": "reader",
          "type": "address"
        }
      ],
      "name": "MessageRead",
      "type": "event"
    },
    {
      "anonymous": false,
      "inputs": [
        {
          "indexed": true,
          "internalType": "address",
          "name": "sender",
          "type": "address"
        },
        {
          "indexed": true,
          "internalType": "address",
          "name": "receiver",
          "type": "address"
        },
        {
          "indexed": false,
          "internalType": "uint256",
          "name": "timestamp",
          "type": "uint256"
        },
        {
          "indexed": false,
          "internalType": "string",
          "name": "ipfsHash",
          "type": "string"
        }
      ],
      "name": "MessageSent",
      "type": "event"
    },
    {
      "inputs": [
        {
          "internalType": "uint256",
          "name": "",
          "type": "uint256"
        }
      ],
      "name": "allMessages",
      "outputs": [
        {
          "internalType": "address",
          "name": "sender",
          "type": "address"
        },
        {
          "internalType": "address",
          "name": "receiver",
          "type": "address"
        },
        {
          "internalType": "uint256",
          "name": "timestamp",
          "type": "uint256"
        },
        {
          "internalType": "string",
          "name": "ipfsHash",
          "type": "string"
        }
      ],
      "stateMutability": "view",
      "type": "function",
      "constant": true
    },
    {
      "inputs": [
        {
          "internalType": "string",
          "name": "",
          "type": "string"
        }
      ],
      "name": "isMessageRead",
      "outputs": [
        {
          "internalType": "bool",
          "name": "",
          "type": "bool"
        }
      ],
      "stateMutability": "view",
      "type": "function",
      "constant": true
    },
    {
      "inputs": [
        {
          "internalType": "string",
          "name": "",
          "type": "string"
        }
      ],
      "name": "messageReceiver",
      "outputs": [
        {
          "internalType": "address",
          "name": "",
          "type": "address"
        }
      ],
      "stateMutability": "view",
      "type": "function",
      "constant": true
    },
    {
      "inputs": [
        {
          "internalType": "address",
          "name": "",
          "type": "address"
        }
      ],
      "name": "publicKeys",
      "outputs": [
        {
          "internalType": "string",
          "name": "",
          "type": "string"
        }
      ],
      "stateMutability": "view",
      "type": "function",
      "constant": true
    },
    {
      "inputs": [
        {
          "internalType": "string",
          "name": "_publicKey",
          "type": "string"
        }
      ],
      "name": "registerPublicKey",
      "outputs": [],
      "stateMutability": "nonpayable",
      "type": "function"
    },
    {
      "inputs": [
        {
          "internalType": "address",
          "name": "_receiver",
          "type": "address"
        },
        {
          "internalType": "string",
          "name": "_ipfsHash",
          "type": "string"
        }
      ],
      "name": "sendMessage",
      "outputs": [],
      "stateMutability": "nonpayable",
      "type": "function"
    },
    {
      "inputs": [
        {
          "internalType": "string",
          "name": "_ipfsHash",
          "type": "string"
        }
      ],
      "name": "markMessageAsRead",
      "outputs": [],
      "stateMutability": "nonpayable",
      "type": "function"
    },
    {
      "inputs": [],
      "name": "getMessageCount",
      "outputs": [
        {
          "internalType": "uint256",
          "name": "",
          "type": "uint256"
        }
      ],
      "stateMutability": "view",
      "type": "function",
      "constant": true
    }
  ],
  "bytecode": "0x608060405234801561001057600080fd5b5061147c806100206000396000f3fe608060405234801561001057600080fd5b50600436106100885760003560e01c8063ca4f73741161005b578063ca4f73741461013e578063de6f24bb1461016e578063f590b65f1461018a578063f68f3348146101a657610088565b8063319339161461008d57806386aaa339146100ab5780639b88c806146100db578063a3d6f9a91461010e575b600080fd5b6100956101c2565b6040516100a291906109c6565b60405180910390f35b6100c560048036038101906100c09190610b3b565b6101cf565b6040516100d29190610b9f565b60405180910390f35b6100f560048036038101906100f09190610be6565b610205565b6040516101059493929190610cd3565b60405180910390f35b61012860048036038101906101239190610d4b565b61030d565b6040516101359190610d78565b60405180910390f35b61015860048036038101906101539190610b3b565b6103ad565b6040516101659190610d9a565b60405180910390f35b61018860048036038101906101839190610db5565b6103f6565b005b6101a4600480360381019061019f9190610b3b565b61076f565b005b6101c060048036038101906101bb9190610b3b565b610802565b005b6000600180549050905090565b6003818051602081018201805184825260208301602085012081835280955050505050506000915054906101000a900460ff1681565b6001818154811061021557600080fd5b90600052602060002090600402016000915090508060000160009054906101000a900473ffffffffffffffffffffffffffffffffffffffff16908060010160009054906101000a900473ffffffffffffffffffffffffffffffffffffffff169080600201549080600301805461028a90610e40565b80601f01602080910402602001604051908101604052809291908181526020018280546102b690610e40565b80156103035780601f106102d857610100808354040283529160200191610303565b820191906000526020600020905b8154815290600101906020018083116102e657829003601f168201915b5050505050905084565b6000602052806000526040600020600091509050805461032c90610e40565b80601f016020809104026020016040519081016040528092919081815260200182805461035890610e40565b80156103a55780601f1061037a576101008083540402835291602001916103a5565b820191906000526020600020905b81548152906001019060200180831161038857829003601f168201915b505050505081565b6002818051602081018201805184825260208301602085012081835280955050505050506000915054906101000a900473ffffffffffffffffffffffffffffffffffffffff1681565b600073ffffffffffffffffffffffffffffffffffffffff168273ffffffffffffffffffffffffffffffffffffffff1603610465576040517f08c379a000000000000000000000000000000000000000000000000000000000815260040161045c90610ebd565b60405180910390fd5b60008060003373ffffffffffffffffffffffffffffffffffffffff1673ffffffffffffffffffffffffffffffffffffffff16815260200190815260200160002080546104b090610e40565b9050116104f2576040517f08c379a00000000000000000000000000000000000000000000000000000000081526004016104e990610f4f565b60405180910390fd5b60008060008473ffffffffffffffffffffffffffffffffffffffff1673ffffffffffffffffffffffffffffffffffffffff168152602001908152602001600020805461053d90610e40565b90501161057f576040517f08c379a000000000000000000000000000000000000000000000000000000000815260040161057690610fe1565b60405180910390fd5b600160405180608001604052803373ffffffffffffffffffffffffffffffffffffffff1681526020018473ffffffffffffffffffffffffffffffffffffffff16815260200142815260200183815250908060018154018082558091505060019003906000526020600020906004020160009091909190915060008201518160000160006101000a81548173ffffffffffffffffffffffffffffffffffffffff021916908373ffffffffffffffffffffffffffffffffffffffff16021790555060208201518160010160006101000a81548173ffffffffffffffffffffffffffffffffffffffff021916908373ffffffffffffffffffffffffffffffffffffffff1602179055506040820151816002015560608201518160030190816106a491906111ad565b505050816002826040516106b891906112bb565b908152602001604051809103902060006101000a81548173ffffffffffffffffffffffffffffffffffffffff021916908373ffffffffffffffffffffffffffffffffffffffff1602179055508173ffffffffffffffffffffffffffffffffffffffff163373ffffffffffffffffffffffffffffffffffffffff167f0b6aa398652c861e442761200431647f8622c16488a180e5354301cdcfb3371542846040516107639291906112d2565b60405180910390a35050565b60008151116107b3576040517f08c379a00000000000000000000000000000000000000000000000000000000081526004016107aa9061134e565b60405180910390fd5b806000803373ffffffffffffffffffffffffffffffffffffffff1673ffffffffffffffffffffffffffffffffffffffff16815260200190815260200160002090816107fe91906111ad565b5050565b3373ffffffffffffffffffffffffffffffffffffffff1660028260405161082991906112bb565b908152602001604051809103902060009054906101000a900473ffffffffffffffffffffffffffffffffffffffff1673ffffffffffffffffffffffffffffffffffffffff16146108ae576040517f08c379a00000000000000000000000000000000000000000000000000000000081526004016108a5906113ba565b60405180910390fd5b6003816040516108be91906112bb565b908152602001604051809103902060009054906101000a900460ff161561091a576040517f08c379a000000000000000000000000000000000000000000000000000000000815260040161091190611426565b60405180910390fd5b600160038260405161092c91906112bb565b908152602001604051809103902060006101000a81548160ff0219169083151502179055503373ffffffffffffffffffffffffffffffffffffffff168160405161097691906112bb565b60405180910390207f881edf2d48120fb12db6dc5145eddf7e69b851a2b6fcbb5f6f93af208bccf62760405160405180910390a350565b6000819050919050565b6109c0816109ad565b82525050565b60006020820190506109db60008301846109b7565b92915050565b6000604051905090565b600080fd5b600080fd5b600080fd5b600080fd5b6000601f19601f8301169050919050565b7f4e487b7100000000000000000000000000000000000000000000000000000000600052604160045260246000fd5b610a48826109ff565b810181811067ffffffffffffffff82111715610a6757610a66610a10565b5b80604052505050565b6000610a7a6109e1565b9050610a868282610a3f565b919050565b600067ffffffffffffffff821115610aa657610aa5610a10565b5b610aaf826109ff565b9050602081019050919050565b82818337600083830152505050565b6000610ade610ad984610a8b565b610a70565b905082815260208101848484011115610afa57610af96109fa565b5b610b05848285610abc565b509392505050565b600082601f830112610b2257610b216109f5565b5b8135610b32848260208601610acb565b91505092915050565b600060208284031215610b5157610b506109eb565b5b600082013567ffffffffffffffff811115610b6f57610b6e6109f0565b5b610b7b84828501610b0d565b91505092915050565b60008115159050919050565b610b9981610b84565b82525050565b6000602082019050610bb46000830184610b90565b92915050565b610bc3816109ad565b8114610bce57600080fd5b50565b600081359050610be081610bba565b92915050565b600060208284031215610bfc57610bfb6109eb565b5b6000610c0a84828501610bd1565b91505092915050565b600073ffffffffffffffffffffffffffffffffffffffff82169050919050565b6000610c3e82610c13565b9050919050565b610c4e81610c33565b82525050565b600081519050919050565b600082825260208201905092915050565b60005b83811015610c8e578082015181840152602081019050610c73565b60008484015250505050565b6000610ca582610c54565b610caf8185610c5f565b9350610cbf818560208601610c70565b610cc8816109ff565b840191505092915050565b6000608082019050610ce86000830187610c45565b610cf56020830186610c45565b610d0260408301856109b7565b8181036060830152610d148184610c9a565b905095945050505050565b610d2881610c33565b8114610d3357600080fd5b50565b600081359050610d4581610d1f565b92915050565b600060208284031215610d6157610d606109eb565b5b6000610d6f84828501610d36565b91505092915050565b60006020820190508181036000830152610d928184610c9a565b905092915050565b6000602082019050610daf6000830184610c45565b92915050565b60008060408385031215610dcc57610dcb6109eb565b5b6000610dda85828601610d36565b925050602083013567ffffffffffffffff811115610dfb57610dfa6109f0565b5b610e0785828601610b0d565b9150509250929050565b7f4e487b7100000000000000000000000000000000000000000000000000000000600052602260045260246000fd5b60006002820490506001821680610e5857607f821691505b602082108103610e6b57610e6a610e11565b5b50919050565b7f496e76616c696420726563656976657220616464726573730000000000000000600082015250565b6000610ea7601883610c5f565b9150610eb282610e71565b602082019050919050565b60006020820190508181036000830152610ed681610e9a565b9050919050565b7f53656e646572206d7573742072656769737465722061207075626c6963206b6560008201527f7920666972737400000000000000000000000000000000000000000000000000602082015250565b6000610f39602783610c5f565b9150610f4482610edd565b604082019050919050565b60006020820190508181036000830152610f6881610f2c565b9050919050565b7f5265636569766572206d7573742068617665206120726567697374657265642060008201527f7075626c6963206b657900000000000000000000000000000000000000000000602082015250565b6000610fcb602a83610c5f565b9150610fd682610f6f565b604082019050919050565b60006020820190508181036000830152610ffa81610fbe565b9050919050565b60008190508160005260206000209050919050565b60006020601f8301049050919050565b600082821b905092915050565b6000600883026110637fffffffffffffffffffffffffffffffffffffffffffffffffffffffffffffffff82611026565b61106d8683611026565b95508019841693508086168417925050509392505050565b6000819050919050565b60006110aa6110a56110a0846109ad565b611085565b6109ad565b9050919050565b6000819050919050565b6110c48361108f565b6110d86110d0826110b1565b848454611033565b825550505050565b600090565b6110ed6110e0565b6110f88184846110bb565b505050565b5b8181101561111c576111116000826110e5565b6001810190506110fe565b5050565b601f8211156111615761113281611001565b61113b84611016565b8101602085101561114a578190505b61115e61115685611016565b8301826110fd565b50505b505050565b600082821c905092915050565b600061118460001984600802611166565b1980831691505092915050565b600061119d8383611173565b9150826002028217905092915050565b6111b682610c54565b67ffffffffffffffff8111156111cf576111ce610a10565b5b6111d98254610e40565b6111e4828285611120565b600060209050601f8311600181146112175760008415611205578287015190505b61120f8582611191565b865550611277565b601f19841661122586611001565b60005b8281101561124d57848901518255600182019150602085019450602081019050611228565b8683101561126a5784890151611266601f891682611173565b8355505b6001600288020188555050505b505050505050565b600081905092915050565b600061129582610c54565b61129f818561127f565b93506112af818560208601610c70565b80840191505092915050565b60006112c7828461128a565b915081905092915050565b60006040820190506112e760008301856109b7565b81810360208301526112f98184610c9a565b90509392505050565b7f5075626c6963206b65792063616e6e6f7420626520656d707479000000000000600082015250565b6000611338601a83610c5f565b915061134382611302565b602082019050919050565b600060208201905081810360008301526113678161132b565b9050919050565b7f4f6e6c792072656365697665722063616e206d61726b20617320726561640000600082015250565b60006113a4601e83610c5f565b91506113af8261136e565b602082019050919050565b600060208201905081810360008301526113d381611397565b9050919050565b7f4d65737361676520616c7265616479206d61726b656420617320726561640000600082015250565b6000611410601e83610c5f565b915061141b826113da565b602082019050919050565b6000602082019050818103600083015261143f81611403565b905091905056fea2646970667358221220c3e31e7628828b0913a7a6c8a9db5d8bbac0bf7a11db17d2c77eae5a8cf8c3fd64736f6c63430008130033",
  "immutableReferences": {},
  "source": "// SPDX-License-Identifier: MIT\r\npragma solidity ^0.8.19;\r\n\r\ncontract SecureMessaging {\r\n\r\n    struct Message {\r\n        address sender;\r\n        address receiver;\r\n        uint timestamp;\r\n        string ipfsHash; // Hash of the encrypted message on IPFS\r\n    }\r\n\r\n    // Event to notify the frontend of new messages\r\n    event MessageSent(\r\n        address indexed sender,\r\n        address indexed receiver,\r\n        uint timestamp,\r\n        string ipfsHash\r\n    );\r\n\r\n    // --- (NEW) ---\r\n    // Event to notify the sender that a message was read\r\n    event MessageRead(string indexed ipfsHash, address indexed reader);\r\n\r\n    // Mapping to store user's public encryption key\r\n    mapping(address => string) public publicKeys;\r\n\r\n    // Array to hold all messages sent through the contract\r\n    Message[] public allMessages;\r\n\r\n    // --- (NEW) Mappings for Read Receipts ---\r\n    // Stores who the receiver is for a given hash\r\n    mapping(string => address) public messageReceiver;\r\n    // Stores the read status for a given hash\r\n    mapping(string => bool) public isMessageRead;\r\n    // -----------\r\n\r\n    /**\r\n     * @dev Registers or updates a user's public encryption key.\r\n     * @param _publicKey The user's public key, as a string.\r\n     */\r\n    function registerPublicKey(string memory _publicKey) public {\r\n        require(bytes(_publicKey).length > 0, \"Public key cannot be empty\");\r\n        publicKeys[msg.sender] = _publicKey;\r\n    }\r\n\r\n    /**\r\n     * @dev Sends a message by storing its IPFS hash and emitting an event.\r\n     * @param _receiver The recipient's Ethereum address.\r\n     * @param _ipfsHash The IPFS hash of the encrypted message.\r\n     */\r\n    function sendMessage(address _receiver, string memory _ipfsHash) public {\r\n        require(_receiver != address(0), \"Invalid receiver address\");\r\n        require(bytes(publicKeys[msg.sender]).length > 0, \"Sender must register a public key first\");\r\n        require(bytes(publicKeys[_receiver]).length > 0, \"Receiver must have a registered public key\");\r\n        \r\n        allMessages.push(Message(msg.sender, _receiver, block.timestamp, _ipfsHash));\r\n        \r\n        // --- (NEW) ---\r\n        // Store the receiver for this hash to verify \"mark as read\"\r\n        messageReceiver[_ipfsHash] = _receiver;\r\n        // -----------\r\n        \r\n        emit MessageSent(msg.sender, _receiver, block.timestamp, _ipfsHash);\r\n    }\r\n\r\n    // --- (NEW FUNCTION) ---\r\n    /**\r\n     * @dev Allows the receiver to mark a message as read.\r\n     * @param _ipfsHash The hash of the message being read.\r\n     */\r\n    function markMessageAsRead(string memory _ipfsHash) public {\r\n        // Check 1: The person calling this must be the intended receiver\r\n        require(messageReceiver[_ipfsHash] == msg.sender, \"Only receiver can mark as read\");\r\n        \r\n        // Check 2: Don't mark as read twice (saves gas)\r\n        require(!isMessageRead[_ipfsHash], \"Message already marked as read\");\r\n\r\n        // Update the status and emit the event\r\n        isMessageRead[_ipfsHash] = true;\r\n        emit MessageRead(_ipfsHash, msg.sender);\r\n    }\r\n    // --------------------\r\n\r\n    /**\r\n     * @dev A simple view function to get the count of all messages.\r\n     */\r\n    function getMessageCount() public view returns (uint) {\r\n        return allMessages.length;\r\n    }\r\n}",
  "sourcePath": "C:\\Users\\tharu\\blockchain-secure-messaging\\contracts\\SecureMessaging.sol",
  "compiler": {
    "name": "solc",
    "version": "0.8.19+commit.7dd6d404.Emscripten.clang"
  },
  "schemaVersion": "3.4.16",
  "updatedAt": "2025-11-11T16:31:36.633Z",
  "networkType": "ethereum",
  "devdoc": {
    "kind": "dev",
    "methods": {
      "getMessageCount()": {
        "details": "A simple view function to get the count of all messages."
      },
      "markMessageAsRead(string)": {
        "details": "Allows the receiver to mark a message as read.",
        "params": {
          "_ipfsHash": "The hash of the message being read."
        }
      },
      "registerPublicKey(string)": {
        "details": "Registers or updates a user's public encryption key.",
        "params": {
          "_publicKey": "The user's public key, as a string."
        }
      },
      "sendMessage(address,string)": {
        "details": "Sends a message by storing its IPFS hash and emitting an event.",
        "params": {
          "_ipfsHash": "The IPFS hash of the encrypted message.",
          "_receiver": "The recipient's Ethereum address."
        }
      }
    },
    "version": 1
  },
  "userdoc": {
    "kind": "user",
    "methods": {},
    "version": 1
  }
}